HFUNDACION MISION ARBOL                  010207622100000222401307/02/22000000021965303291 
001020497600000270018000000015520770BLONDELL SALAS GUSTAVO ENRIQUE          0011604233003291  
001020243480000163400000000023790770SANCHEZ HERNANDEZ JHORMAN ADAM          0015794346003291  
001020383000000116392000000042390770SKARLET ZERIMAR SANTAMARIA RAMIREZ      0019932535003291  
101020245150100035253000000015521770YGOR JOSE MARQUEZ                       0016030685003291  
101020872640100000234000000015521770OSWALDO ENRIQUE PEROZO ESCALONA         0007760415003291  
101020497650104989143000000015521770AHITOR SIMON SANZ GUZMAN                0029595127003291  
101020221330100340796000000015521770JOSE FELIPE GARCIA PEREZ                0009954052003291  
101020464010100021671000000017121770TACHINAMO GARCIA FREDDY LEON            0004011202003291  
001020387210000327453000000018530770MAITA BENTACOURT ERNESTO JOSE           0021613493003291  
001020741050000200554000000015840770BASTIDAS GAMBO JULIO ANTONIO            0023780388003291  
101020743610100005772000000016001770PALENCIA MACARIO ANTONIO                0005461819003291  
001020501860004071093000000015840770ARIAS CAICEDO WILLIAM                   0006249413003291  
001020501860003353767000000016000770VILLEGAS COLMENARES ENRIQUETA JOSEFINA  0006367985003291  
001020501870003340220000000018700770GODOY TRIBIÑO JOSE DE JESUS             0009260188003291  
001020369400000420130000000015840770BRICEÑO ELVIS CARLOS ASDRUBAL           0011126299003291  
001020501870003641893000000042090770DELGADO MARQUEZ CARLOS ALBERTO          0011619937003291  
001020513160000308553000000021400770LEON MILLAN HUGO JOSE                   0015112535003291  
001020501870003340301000000016000770ESCALONA GOMEZ LUIS ROBERT              0020349743003291  
001020660040000112723000000018610770JOSE GREGORIO LA CRUZ GIRON             0022019447003291  
001020102130000241034000000016420770VASQUEZ VILLARROEL  MIGUEL ANGEL        0004849019003291  
001020466640000051978000000017930770RODRIGUEZ DE PEREZ MARIA ROBERTA        0004998584003291  
101020678270100005318000000029851770OMAVGE MORENO                           0025988463003291  
001020364310000393872000000021160770ARANGUREN REYES ELISEX  JOSE            0013183147003291  
001020317190000449467000000018460770CURVELO LENNIS SUHAID                   0013559613003291  
101020640540100001497000000018531770ASCANIO GARCIA JULIANY KATHERINE        0013982777003291  
001020698730000597542000000030580770VELIZ BAZAN HERMES EDUARDO              0017064752003291  
001020387260000268318000000033650770ZAMBRANO RATIA MIGUEL ANGEL             0017221186003291  
101020453440100350412000000015761770RANGEL EUDODIMAR DEL VALLE              0020248968003291  
101020461510104857903000000018391770UGUETO CELIS CRUZ DANIELA               0022386520003291  
001020741080000217974000000015690770OCHOA SANCHEZ JOSE FRANCISCO            0009400029003291  
101020399650109661240000000015761770APARICIO OSORIO LINDA MINERBA           0010458657003291  
001020467460000645724000000033650770CORDERO LAYA YRAIDA NOHEMI              0011121766003291  
001020358940000623542000000021160770GUTIERREZ REVERON MERVIS DUGLAS         0012479801003291  
101020475510104847347000000015691770ESTUDILLO RUIZ JONHATAN JOSE            0015025950003291  
001020184570000202536000000015760770MARIN FERMIN AMILCAR FELIPE             0015317507003291  
101020256670100020300000000016421770MARTINEZ ARROYO RUBEN                   0016591749003291  
101020369490100088373000000026561770CASTELLANO GRECIA CRUZ                  0017095048003291  
101020467410101638224000000021161770ALDANA YUNEIRY DEL VALLE                0017352685003291  
001020668570000211996000000023790770LUNA LUNA JOLWIN ORLANDO                0019806280003291  
001020467450000614823000000030580770MANZANO ROMERO ROBERTO ANTONIO          0019986711003291  
001020111010000279624000000018390770LINAREZ GALINDEZ DIXISARAIS COROMOTO    0021054730003291  
101020629420100000516000000033281770MEDRANO RIVERA EDGAR ALBERTO            0025398739003291  
001020312120000263821000000030580770RODRIGUEZ VITAE LINER ADRIANA           0026120945003291  
001020369420000599744000000015760770LINARES SEGARRA ROBER ALEXANDER         0026311286003291  
001020497660000350860000000018300770MIGUEL PARRA                            0016203687003291  
001020453420000200868000000015600770ALEJANDRO REINA CRUZ                    0015321865003291  
001020114460000819990000000015600770ZABDIEL ESTEBAN MARTINEZ GARCÍA         0030427714003291  
001020229900000366074000000015600770JOSE LUIS HERRERA GONZALEZ              0006553586003291  
001020222140000223340000000015600770ANTONIO TORRES VIVIANO                  0006175185003291  
101020467470101651509000000015601770LUIS ALDANA                             0008786164003291  
001020467410000654511000000015600770JOSE MENDOZA                            0021336466003291  
001020100480000013709000000019020770JHON RONALD REYES CAÑIZALEZ             0016202004003291  
001020104750000191922000000015600770LUIS MONTILLA                           0019334595003291  
001020229950000355250000000015600770JOSE ANTONIO RAMON BASTIDAS QUINTERO    0004313413003291  
001020322850000158334000000029850770JOSE GREGORIO RANGEL GUILLEN            0016877193003291  
101020365120100077467000000029851770ALEXIS MEDINA                           0007577356003291  
001020306600000503701000000032550770MARISOL MORALES TORO                    0011161545003291  
101020676670100010172000000035241770YAMIL ANTONIO SALAZAR MARTINEZ          0026918513003291  
001020673130000670456000000029850770EDUARDO JESUS MAZA LISBOA               0016997503003291  
101020513100100025001000000035241770DISNEIDA CAROLINA GUEVARA MARQUEZ       0017539155003291  
001020616210000103059000000015520770JAVIER ERNESTO NAVARRO                  0018652131003291  
101020623510100005251000000015521770ADRIANA JOSEFINA PEREZ                  0022700937003291  
001020453410000510312000000015520770YULIANNYS RINCONES ASTUDILLO            0025623694003291  
001020138110000099891000000015520770MARISOL HERNANDEZ GUILARTE              0011413187003291  
001020383060000304476000000015520770MARCO YSRAEL PEREZ VELASQUEZ            0006264498003291  
001020213220000095921000000015520770BRAYAHAM AARON ESCORBAR                 0023646233003291  
001020457710000625126000000015520770JOSE IRIS DEL CARMEN CABALLERO          0030846696003291  
001020457770000611237000000015520770ALBERTO AGUILERA                        0006253339003291  
001020383090000316147000000015520770RICHAR ANTONIO RAMIREZ                  0010523293003291  
001020790810000034762000000015520770JESUS OSWALDO OVALLES                   0011196210003291  
101020106360100059772000000015521770ALEJANDO DE JESUS RODRIGUEZ TOVAR       0029532546003291  
101020241830100024238000000015521770EMILIO SALAZAR                          0015290154003291  
001020782750000169006000000015600770ENDER JOSE MORA PRADA                   0028283087003291  
001020501830004140102000000015760770GABRIEL JESUS BASTARADO MENDEZ          0013466423003291  
001020245120000394020000000015520770MAXIMA MARTINA NIEVEZ MENDEZ            0012507991003291  
001020383010000310936000000015520770RAUL OMAR MEJIAS CASTILLO               0006049645003291  
001020690100000053824000000015520770GUSTAVO JOSE PEREIRA                    0007207357003291  
001020169120000276779000000015520770JOSE ÁNGEL GAMBOA ARANDIA               0027788690003291  
101020101290100107914000000015521770YESENIA MARGARITA MIJARES               0016134321003291  
001020614690000111575000000015520770EDEGLIS VANESA  MONRROI CHIGUITA        0025265499003291  
001020221340000267021000000015520770ALEXIIS RAMON HERNANDEZ GONZALEZ        0005059539003291  
101020223020100015825000000015521770JESUS BECERRA                           0011619495003291  
101020540920100008176000000015521770JOSE ANTONIO TARACHE                    0003663079003291  
101020383010100086273000000022121770CARMEN ELENA SOLORZANO SALAS            0009961617003291  
001020384890000047319000000015520770LUIS RAMON RODRIGUEZ SANDOVAL           0005566564003291  
001020161620000173283000000015520770IRIS JOHANA PALMA CLEMENTE              0026409760003291  
001020467420000604626000000015520770SOLANGEL DEL VALLE HERNANDEZ YBARRA     0016074599003291  
101020245110100031173000000055921770KISYS DEL VALLE ACOSTA AÑEZ             0013943737003291  
001020738080000031639000000015520770STEFANO GIUSEPPE BORZACCHINI MARINO     0023637408003291  
101020189690100012743000000015521770 JANETE AGUERO                          0006327487003291  
001020383010000070836000000015520770YENY JOSEFINA MACHADO                   0012469010003291  
001020872620000118918000000026320770RUTH ONEIDA LANDAETA                    0021148466003291  
001020456910000344151000000015520770FRANKLIS MONTERO FUENTES                0013760880003291  
101020790880100000702000000015521770RAFAEL TEODORO AVENDAÑO                 0005567066003291  
001020222110000220576000000015520770ANGEL RAFAEL SALAZAR                    0013432916003291  
101020910230100000992000000021621770FREDDY ALBERTO GUILLEN SERRANO          0012439000003291  
001020105590000294489000000015520770ESTEBAN JOSE GARCIA URIEPERO            0024281040003291  
001020333350000379883000000015520770MORENO LOPEZ VICTOR ALFONSO             0015993902003291  
001020501830006966591000000015520770OSCAR ANTONIO ROJAS SOTO                0027606074003291  
101020489560102178862000000016231770RODOLFO ALEXANDER MALDONADO CHACON      0013717300003291  
001020115230000402682000000015520770FRANCO VASQUEZ JOSE ALBERTO             0027035938003291  
001020140310000173209000000015520770MEDINAS GOMEZ ROSA ISABEL               0011544162003291  
101020876950100005133000000015521770MEDINAS GOMEZ MARY CRUZ                 0010638932003291  
001020673170000615518000000015520770OTERO CALVO JOSE GREGORIO               0027351661003291  
001020616230000363323000000015520770OLIVIER MARTINEZ YOENDRY ISRAEL         0030537831003291  
101020399600109652915000000015521770JOSE DEL CARMEN HERNANDEZ HERNANDEZ     0022285936003291  
101020399600109661226000000015521770DANILO GREGORIO TOLEDO PEÑALVER         0007263743003291  
001750471140061867339000000015520770ALVARO JOSE GONZALEZ CORTEZ             0004460768003291  
001750677380076024711000000018230770LADERA MAYORA MIRIAMYELIS LUCIA         0021193783003291  
001630234162343009637000000015520770MIGUEL RAMON ALFONZO                    0008552874003291  
001050017660017579775000000015520770ISAIAS REALES CONTRERAS                 0083758303003291  
001750184460076411008000000015520770ALEXANDER RAFAEL ALFONZO CAMELO         0022752749003291  
001560006390300637712000000020920770ELIANA ELIZABETH PONCE LOYO             0026343131003291  
001750677370076141181000000015520770JOSE RAUL PACHECO IBARRA                0030873942003291  
