HFUNDACION MISION ARBOL                  010207622100000222401407/02/22000000020885003291 
001020466640000506151000000024490770PIMENTEL BENAVIDES ABEL LEONELLES       0008191921003291  
001020662680000117537000000021640770MARIN JOSEFINA DEL VALLE                0008272850003291  
001020345770000420716000000026670770ANDREINA ECHEVERRIA                     0026559883003291  
001020770340000134934000000021640770PASTOR BETANCOURT WILLIAM               0008665194003291  
101020246950100018092000000023211770VASQUEZ COVA ANDREINA DEL VALLE         0014017338003291  
001020698710000366618000000019370770CORONA HERNANDEZ WILFREDO RAFAEL        0015680408003291  
001020257420000035745000000019370770MARTINEZ COBO JORGE ARMANDO             0015987384003291  
001020485200000140973000000046190770VASQUEZ MEZA JENIREE COROMOTO           0016683801003291  
001020369490000439723000000021120770ROSARIO NUÑEZ MARIA DE LOS ANGELES      0017346857003291  
001020105500000389352000000023830770RUIZ BETANCOURT MARYORI LISBETH         0018271481003291  
101020455130103116122000000100661770ROMERO BERNAVET JUNIOR JOSE             0019314520003291  
001020698720000684057000000024340770ROMERO MELENDEZ YELIS CARINA            0019405847003291  
001020629460000054124000000027260770MARTINEZ EUREA JULIAN DANIEL            0020566829003291  
101020724010100002434000000014951770MATEUS VALDERRAMA JESUS ANTONIO         0020794924003291  
001020501860006638366000000032660770MARTINEZ NATERA ARISLEIDY DEL CARMEN    0021082749003291  
101020339260104362120000000021641770COBIS CHIRINOS JESUS ENMANUEL           0021544491003291  
001020335010000229467000000014810770RICHARD RAFAEL ORTEGA ALVIAREZ          0029532111003291  
001020711870000034607000000021640770HUIZI DIAZ YOLIMAR CAROLINA             0022667732003291  
101020169100100030466000000024341770CELIS BLANCO SERGIO JOSE                0023101268003291  
101020647220100002961000000014951770VASQUEZ CEDEÑO JOSE GREGORIO            0025098555003291  
001020369410000322584000000020510770ADELYANA  URRECHEAGA                    0018036501003291  
001020744490000189992000000014810770LUIS ROJAS                              0011951726003291  
101020493360100018612000000022011770THAMARA DEL CARMEN NUÑEZ                0018034768003291  
001020112800000330673000000014950770MEDINA PERALTA BRIAN ANTONI             0027411298003291  
001020540960000419772000000014950770HERNANDEZ PRIETO EUKARIS                0027694743003291  
001020698780000655895000000014950770AGRINZONES RANGEL BOOZ GABRIEL          0028029202003291  
001020383030000279718000000014950770SUAREZ ZORRILLA SILENE GABRIELA         0028218764003291  
001020457780000483766000000020210770YENIS INFANTE                           0014949270003291  
001020140330000230524000000014880770MEDINA GOMEZ DAVID ALEXANDER            0028490535003291  
001020501880004145806000000021640770NEUGIM TAYKANA BLANCO GARCIA            0014934598003291  
001020139040000068424000000014880770IRMA HONORINA CASTILLO OJEDA            0010801848003291  
001020744490000423726000000014880770MARVILEY PINZON ALVIAREZ                0026931757003291  
101020284110100018584000000017511770GENESIS CARDOZO                         0020304582003291  
001020151950000484859000000014880770YAIRE VIVIANA SANCHEZ DAVILA            0028205394003291  
001020391190000697154000000026670770JHONEYMI RAIBEH RIVERO SANCHEZ          0030681914003291  
101020724090100002855000000014811770YENDER JOSE LINARES SOTO                0027571519003291  
001020221300000419620000000016150770ESKARLE LISHET BELTRAN                  0027753243003291  
001020876970000189264000000014880770JOSE GREGORIO VEGA LUNA                 0016147415003291  
001020132280000053031000000021340770BARRETO GUEVARA NARMARY YAQUIVEL        0013748997003291  
001020306680008808055000000028120770PEDRO ASBEL SIVA REY                    0010416980003291  
001020383010000318776000000014810770CEDEÑO RODRIGUEZ YULIANIS ANTONIA       0021073314003291  
001020383050000311906000000017510770RUBY NATALY LOPEZ RODRIGUEZ             0023617211003291  
001020467430000490814000000021770770BENIUSKA MARIA PEREZ ZAPATA             0019221075003291  
001020859970000350080000000014810770REINER ALFONSO MOROS MARQUINA           0029957830003291  
001020221330000830092000000015480770JOHAN JOSE LAMONT CLEMENTE              0025872093003291  
001020130600000236968000000014810770WISSEM MERIDA                           0026040932003291  
001020133150000291628000000015480770ALEJANDRO JOSE PURROY MAIGUA            0029611653003291  
001020467400000588289000000016150770MARIA TERESA MARQUEZ SANTAELLA          0017741906003291  
001020221380000836575000000017510770ANA CECILIA HERNANDEZ DUBLAS            0028481466003291  
001020738060000020514000000022720770ALICIA MERCEDES GUERRA RODRIGUEZ        0004841407003291  
001020228130000171528000000021340770JHONATAHAN SALVADOR PRIN                0019930629003291  
001020383020000321491000000014810770YOSNEL ALEJANDRO ANDARA MERLO           0029738610003291  
101020143830101417146000000015521770LUGO ALMEIDA PEDRO JOSE                 0018233560003291  
001020352060000299646000000015520770ACEVEDO YERRY DE JESUS                  0011411125003291  
001020364370000708522000000015520770PEDRO SAMIR APARICIOS RIVAS             0030511598003291  
001020243480000255350000000014810770ADRIAN JESUS HERNANDEZ                  0030356277003291  
001020681240000040620000000016150770SERGIO JOSE DAVILA SANDOVAL             0017664960003291  
001020354650000052692000000019070770BETTY PEÑA LOPEZ                        0011952338003291  
101020734730100005407000000017511770MARBELING COROMOTO HERNANDEZ ANGULO     0018603233003291  
101020152790100062368000000015521770JESUS ANTONIO NAZARENO BARRIOS SALAS    0025939445003291  
101020322810100106038000000017511770KARELYS DESIRE YANEZ ALVAREZ            0029969764003291  
001020352010000044927000000015520770ROSA ADELA MILLAN DE GERDEL             0006442954003291  
001020876960000257264000000015520770DUBAL JOAQUIN VIERA DURAN               0030375961003291  
001020466690000552163000000019070770YASMIN AMARILIS PEREZ TOVAR             0025260425003291  
001020228170000319982000000022910770ANGELY YUXELY PIÑANGO CONDE             0018329757003291  
101020662610100005248000000015481770JADELYN IVANNET FLORES RIVERA           0027226495003291  
001020219120000288916000000021340770VILLAMIZAR PARRA GLADYS GABRIELA        0019501736003291  
001020556530000017446000000019070770MAIZ CABELLO ANDRES ALEJANDRO           0020871490003291  
101020687190100005485000000022721770NAVAS PUENTES JOSELIN ORIANA            0018111150003291  
101020161620100064514000000014811770CLAUDIO ALIRIO ROJAS ALVARADO           0018867046003291  
001020512310000138011000000015480770JACOB TOVAR MARCANO                     0024695923003291  
001020662680000117540000000015480770LAURA MARAGUACARE                       0017537203003291  
101020472160100019497000000019071770ALVARADO FRANCISCO URRIBARRI NAVA       0023463609003291  
001020246990000027973000000014810770JULIETA EDUVIGIS ESCOBAR                0007926092003291  
101020872610100002365000000054811770PAOLIS YENKARI BONILLO JIMENEZ          0022436487003291  
001020687140000181712000000061340770COBO JIMENEZ JOSE ANGEL                 0026615859003291  
001020501800006510772000000020210770KEYTON ANTONIO AVILA BUSTACARA          0019373948003291  
101020311270103121289000000025421770MONTOYA NOGUERA ISBELI DESIRE           0019411230003291  
001020169190000371409000000057510770WUISLENNY DEL CARMEN BERROTERAN SOSA    0030063794003291  
001020698740000909978000000014810770AGRIZONES RANGEL KEREN FELICIA          0030207446003291  
001020743610000446376000000014810770CRISBELY NAZARETH LEAL MARQUES          0030273520003291  
001020734790000157296000000014810770LOPEZ MEJIA JOSE RAFAEL                 0027661289003291  
001020221340000841939000000014810770DURAN NODA AYBERSON HUMBERTO            0030708711003291  
001020383090000339069000000015480770CORRO ACOSTA GENESIS MARIBEL            0028447863003291  
001020383070000339056000000014810770YONNEIKER ALEJANDRO HERRERA ACOSTA      0026465088003291  
001020221310000892108000000014810770ALEJANDRO LUCIANO ALVARADO BUSTOS       0029875507003291  
101020501890109396967000000014811770VICTOR ALEJANDRO VILLARROEL COVIS       0028135701003291  
001020399600000397179000000014810770ALVIS SOTILLO KIMBERLYN STEFANIE        0030780854003291  
001020383010000340236000000014810770VILLEGAS TORRES JOSE LUIS               0030329862003291  
001020435640000909347000000014810770GALLARDO PRIETO ANDRILUZ DAYANA         0031551705003291  
001020145460000650641000000014810770ECHEVERRIA FONSECA YOXANDRA MARGARITA   0019808387003291  
001020501860004138033000000014810770ANTHONY JOSEPH FIGUEROA PARABABI        0022023254003291  
001020486140000146935000000014810770ADRIANA CAROLINA QUINTERO SANCHEZ       0023442976003291  
001020412700000378198000000015480770MACCO ALCALA FABIANNY DEL VALLE         0026886462003291  
001020739810000103318000000018310770MAYLITH ZULAY JORDAN MORENO             0014701172003291  
001020221360000836562000000014810770JOSE AGUSTIN PINTO DOUGLAS              0029992866003291  
101020140380106008297000000016151770BALSEIRO JONAIKER JOSE                  0026046548003291  
001750102090075646467000000027260770PURROY FERNANDEZ ARISBEL DEL VALLE      0016577852003291  
001750068680073761090000000018230770WENDY SUAREZ                            0023625346003291  
001160067130027279006000000015480770DANIEL JOSE ANTUNEZ IBANEZ              0027360224003291  
001160141310209262125000000015480770JORGE LUIS POMAREZ RINCON               0028109189003291  
001050015000015401650000000015480770LAKSWY CASTRO                           0027321555003291  
001340132281322093744000000016150770GLADYS COROMOTO CACERES GONZALEZ        0005790594003291  
