HFUNDACION MISION ARBOL                  010207622100000222401507/02/22000000005419603291 
001020501800000478771000000040790770ELIECER CENTENO                         0017078494003291  
101020132260100025759000000040791770MARY PEREZ                              0004358659003291  
001050079611079685863000000040791770AYRTON LOVERA                           0019562504003291  
001020133160000085300000000040790770JOHANDRY RINCON RINCON                  0022764917003291  
001020876950000133388000000040790770EVELIO RAMON LUGO                       0005604890003291  
001020501830000294654000000040790770ELIANA MARIA SANCHEZ ALDANA             0013884470003291  
101020877720100002299000000040791770EDGARDO BLANCO                          0024671080003291  
001020501830000227388000000040790770SALVADOR ALBERTO GUADAMO                0005610322003291  
001020221370000241704000000040790770DOUGLAS JUAN CARLOS FLORES GOMEZ        0014674002003291  
001020222110000047649000000040790770RONALD VILLEGAS                         0010827980003291  
001020501810004233297000000040790770DENIS ENRIQUE SOTO ARCIA                0020164189003291  
101020117980107832968000000031091770KENNY JOSE MORA GARCIA                  0026793417003291  
001020117940000480510000000031090770ARELIS NATALIA ROLON LUGO               0027400316003291  
001020256610000377869000000031090770LOREDANA ANDREINA CANINO ESCALONA       0024523326003291  
