HFUNDACION MISION ARBOL                  010207622100000222402007/02/22000000006708603291 
101020103900103788831000000034511770TORREALBA NESTOR DANIEL                 0013873507003291  
001020151930000447540000000004180770CORDERO MARTINEZ ENRIQUE JOSE           0019774913003291  
001020228170000410797000000016620770ELIO RAFAEL ISTURIZ RANGEL              0029661939003291  
001020335000000072371000000052100770HERAZO PEREZ ADRIAN MANUEL              0025253166003291  
001020335010000229467000000159620770RICHARD RAFAEL ORTEGA ALVIAREZ          0029532111003291  
001020766530000010867000000015110770MEDINA RODRIGUEZ, LENNYN RAFAEL         0014221055003291  
101020586700100002423000000018271770GIMENEZ PAIVA RAUL ALBERTO              0028013956003291  
001020501860006610342000000348700770PARRA RODRIGUEZ MUCHELLE FUENMAYOR      0027890275003291  
101020722390100002718000000017181770RAMIREZ ZAPATA  KLEYRIS                 0025845181003291  
101020161670100070026000000004571770VELOA REYES BRAYAN ALBERT               0023688622003291  
